:107C00001F92CDB7DEB7112484B714BE81FD06C024
:107C100083FF03C08983E2D08981D2D182E080933F
:107C2000C00088E18093C10096E09093C20093E386
:107C30009093C400809360008EE080936000219A4E
:107C4000612C712C08E128E0F22EEE24E39435E05B
:107C5000D32E41E1C42E13E08CD1813469F489D153
:107C6000898395D189818238F9F0813811F485E0D2
:107C700001C083E077D17BC0823411F484E103C07A
:107C8000853419F485E08FD172C0853549F471D1FE
:107C9000B82E6FD16B2C712C782A660C771C66C0BD
:107CA000863521F484E07FD180E0E4CF843609F08A
:107CB0003FC05FD15ED1982E5CD1611480E7780619
:107CC00018F4F30117BFE895A12CBB24B39451D14C
:107CD000F50181935F019E12FACF6114F0E77F06F0
:107CE00018F0F30117BFE89552D107B600FCFDCF9D
:107CF000A301A0E0B1E08C9112969D0121503109C1
:107D0000F901208190E0922BFA010C01E7BEE89581
:107D100011244E5F5F4FA038F1E0BF0761F7F30118
:107D2000D7BEE89507B600FCFDCFC7BEE8951FC0DB
:107D3000843769F41ED11DD1B82E1BD128D1F3018F
:107D400085913F010FD1BA94B110F9CF10C085379A
:107D500039F41DD18EE106D185E904D18FE08ACFB7
:107D6000813521F400936000F092600010D180E131
:107D7000F9D072CF8EBD0DB407FEFDCF8EB508953C
:107D80005F9885E0F7DF80E0F5DF5F9A8170089506
:107D9000CF93C82F662321F060E086E0F9DF5F9A79
:107DA000EFDF8111FDCF5F988C2FCF91E3CFCF9282
:107DB000DF92EF92FF926B017C0160E083E0E8DFED
:107DC0008E2DD8DF8D2DD6DF8C2DD4DF80E0D2DF55
:107DD0005F9AFF90EF90DF90CF9008959F92AF92BF
:107DE000BF92CF92DF92EF92FF920F931F93CF93A8
:107DF000DF9388E18093600010926000579A84B10D
:107E00008C6284B95F9A2A9A8CB580658CBD5F9824
:107E10008FE9B0DF80E0AEDF5F9A81508E3F08F0DF
:107E200095C061E081E0B4DF80E0A4DF5F9A60E0AC
:107E300070E0CB01BCDF863409F088C061E070E0FF
:107E400080E090E0B4DF8C3409F080C062E070E044
:107E500080E090E0ACDF883509F078C066E070E043
:107E600080E090E0A4DF8A3309F070C069E070E040
:107E700080E090E09CDF8A3309F068C067E070E042
:107E800080E090E094DFC82F68E070E080E090E050
:107E90008EDFD0E0DC2FCC27C82BC0FD57C0199A4D
:107EA000C12CD12C00E010E0BB24B39483E0A82EB9
:107EB00095E0992E0C171D0770F5B801665F7F4F8E
:107EC00080E090E074DFE82EF12CB801655F7F4F11
:107ED00080E090E06CDFF82AF8010701B7BEE89572
:107EE00011240E5F1F4FC8018F779927892B19F036
:107EF0000C171D07F9F6F601A7BEE89507B600FCBA
:107F0000FDCFF60197BEE89507B600FCFDCFF0E87F
:107F1000CF0ED11CCFCF199881E187BFE8952A9663
:107F200061E0C130D04810F482E501C088ED30DF57
:107F300080E020DF80E01EDF80E01CDF5F9A88E1C8
:107F40008093600088E080936000FFCFDF91CF9145
:107F50001F910F91FF90EF90DF90CF90BF90AF9067
:107F60009F9008959091C00095FFFCCF8093C6002C
:107F70000895199A8091C00087FFFCCF8091C000BE
:107F800084FD01C0A8958091C600199A0895F1DF7B
:107F9000803239F088E18093600088E0809360004F
:107FA000FFCF84E1DFCFCF93C82FE3DFC150E9F7E4
:107FB000CF91EDCFE0E6F0E098E1908380830895E3
:107FC000282EE0E6F0E088E180831082EE27FF278C
:027FD000099412
:027FFE0000057C
:0400000300007C007D
:00000001FF
